{
  "contractName": "carsSale",
  "abi": [
    {
      "inputs": [],
      "name": "addMoneyToAccount",
      "outputs": [],
      "stateMutability": "payable",
      "type": "function",
      "payable": true
    },
    {
      "inputs": [
        {
          "internalType": "uint256",
          "name": "_amount",
          "type": "uint256"
        }
      ],
      "name": "withdraw",
      "outputs": [],
      "stateMutability": "nonpayable",
      "type": "function"
    },
    {
      "inputs": [
        {
          "internalType": "string",
          "name": "_licensePlate",
          "type": "string"
        }
      ],
      "name": "buyCar",
      "outputs": [],
      "stateMutability": "nonpayable",
      "type": "function"
    },
    {
      "inputs": [
        {
          "internalType": "string",
          "name": "_licensePlate",
          "type": "string"
        }
      ],
      "name": "confirmPayment",
      "outputs": [],
      "stateMutability": "nonpayable",
      "type": "function"
    },
    {
      "inputs": [
        {
          "internalType": "string",
          "name": "_licensePlate",
          "type": "string"
        }
      ],
      "name": "cancelPayment",
      "outputs": [],
      "stateMutability": "nonpayable",
      "type": "function"
    },
    {
      "inputs": [
        {
          "internalType": "address payable",
          "name": "user",
          "type": "address"
        }
      ],
      "name": "getUserBalance",
      "outputs": [
        {
          "internalType": "uint256",
          "name": "",
          "type": "uint256"
        }
      ],
      "stateMutability": "view",
      "type": "function",
      "constant": true
    },
    {
      "inputs": [
        {
          "internalType": "address payable",
          "name": "user",
          "type": "address"
        }
      ],
      "name": "getWalletBalance",
      "outputs": [
        {
          "internalType": "uint256",
          "name": "",
          "type": "uint256"
        }
      ],
      "stateMutability": "view",
      "type": "function",
      "constant": true
    },
    {
      "inputs": [],
      "name": "getAllCars",
      "outputs": [
        {
          "internalType": "string[]",
          "name": "",
          "type": "string[]"
        }
      ],
      "stateMutability": "view",
      "type": "function",
      "constant": true
    },
    {
      "inputs": [
        {
          "internalType": "string",
          "name": "_licensePlate",
          "type": "string"
        }
      ],
      "name": "getImageHash",
      "outputs": [
        {
          "internalType": "string",
          "name": "",
          "type": "string"
        }
      ],
      "stateMutability": "view",
      "type": "function",
      "constant": true
    },
    {
      "inputs": [
        {
          "internalType": "string",
          "name": "_licensePlate",
          "type": "string"
        }
      ],
      "name": "getMileageHistory",
      "outputs": [
        {
          "internalType": "uint256[]",
          "name": "",
          "type": "uint256[]"
        }
      ],
      "stateMutability": "view",
      "type": "function",
      "constant": true
    },
    {
      "inputs": [
        {
          "internalType": "string",
          "name": "_licensePlate",
          "type": "string"
        }
      ],
      "name": "getCar",
      "outputs": [
        {
          "components": [
            {
              "internalType": "string",
              "name": "licensePlate",
              "type": "string"
            },
            {
              "internalType": "string",
              "name": "chassisNumber",
              "type": "string"
            },
            {
              "internalType": "string",
              "name": "brand",
              "type": "string"
            },
            {
              "internalType": "string",
              "name": "typeCar",
              "type": "string"
            },
            {
              "internalType": "string",
              "name": "colour",
              "type": "string"
            },
            {
              "internalType": "uint256",
              "name": "mileage",
              "type": "uint256"
            },
            {
              "internalType": "uint256[]",
              "name": "mileageHistory",
              "type": "uint256[]"
            },
            {
              "internalType": "enum carsSale.carStatus",
              "name": "status",
              "type": "uint8"
            },
            {
              "internalType": "uint256",
              "name": "price",
              "type": "uint256"
            },
            {
              "internalType": "string",
              "name": "image",
              "type": "string"
            },
            {
              "internalType": "address payable",
              "name": "owner",
              "type": "address"
            },
            {
              "internalType": "address payable",
              "name": "buyer",
              "type": "address"
            }
          ],
          "internalType": "struct carsSale.Car",
          "name": "",
          "type": "tuple"
        }
      ],
      "stateMutability": "view",
      "type": "function",
      "constant": true
    },
    {
      "inputs": [
        {
          "internalType": "string",
          "name": "_licensePlate",
          "type": "string"
        },
        {
          "internalType": "string",
          "name": "_chassis_number",
          "type": "string"
        },
        {
          "internalType": "string",
          "name": "_brand",
          "type": "string"
        },
        {
          "internalType": "string",
          "name": "_type_car",
          "type": "string"
        },
        {
          "internalType": "string",
          "name": "_colour",
          "type": "string"
        },
        {
          "internalType": "uint256",
          "name": "_mileage",
          "type": "uint256"
        },
        {
          "internalType": "enum carsSale.carStatus",
          "name": "_status",
          "type": "uint8"
        },
        {
          "internalType": "uint256",
          "name": "_price",
          "type": "uint256"
        },
        {
          "internalType": "string",
          "name": "hash",
          "type": "string"
        }
      ],
      "name": "setCar",
      "outputs": [],
      "stateMutability": "nonpayable",
      "type": "function"
    },
    {
      "inputs": [
        {
          "internalType": "string",
          "name": "_licensePlate",
          "type": "string"
        },
        {
          "internalType": "enum carsSale.carStatus",
          "name": "_status",
          "type": "uint8"
        }
      ],
      "name": "setStatus",
      "outputs": [],
      "stateMutability": "nonpayable",
      "type": "function"
    },
    {
      "inputs": [
        {
          "internalType": "string",
          "name": "_licensePlate",
          "type": "string"
        },
        {
          "internalType": "uint256",
          "name": "_newPrice",
          "type": "uint256"
        }
      ],
      "name": "setPrice",
      "outputs": [],
      "stateMutability": "nonpayable",
      "type": "function"
    },
    {
      "inputs": [
        {
          "internalType": "string",
          "name": "_licensePlate",
          "type": "string"
        },
        {
          "internalType": "uint256",
          "name": "_mileage",
          "type": "uint256"
        }
      ],
      "name": "setMileage",
      "outputs": [],
      "stateMutability": "nonpayable",
      "type": "function"
    }
  ],
  "bytecode": "0x608060405234801561001057600080fd5b50612b4c806100206000396000f3fe6080604052600436106100e85760003560e01c80634edc2b111161008a578063abfe5d5711610059578063abfe5d57146102cd578063cc984bba146102f8578063deaab7a914610335578063ed8ec1941461035e576100e8565b80634edc2b111461023457806374c946f91461023e57806384126e011461027b578063912db0fb146102a4576100e8565b80632642eabf116100c65780632642eabf146101685780632e1a7d4d1461019157806347734892146101ba578063479487e3146101f7576100e8565b806310bc9a93146100ed578063157e25cd1461011657806322e011921461013f575b600080fd5b3480156100f957600080fd5b50610114600480360381019061010f9190611bd2565b61039b565b005b34801561012257600080fd5b5061013d60048036038101906101389190611d44565b6106c6565b005b34801561014b57600080fd5b5061016660048036038101906101619190611d44565b6107de565b005b34801561017457600080fd5b5061018f600480360381019061018a9190611da0565b610881565b005b34801561019d57600080fd5b506101b860048036038101906101b39190611de9565b610a5a565b005b3480156101c657600080fd5b506101e160048036038101906101dc9190611e74565b610b7c565b6040516101ee9190611eb0565b60405180910390f35b34801561020357600080fd5b5061021e60048036038101906102199190611da0565b610bc5565b60405161022b91906121bc565b60405180910390f35b61023c6110bd565b005b34801561024a57600080fd5b5061026560048036038101906102609190611da0565b61116e565b6040516102729190612228565b60405180910390f35b34801561028757600080fd5b506102a2600480360381019061029d9190611da0565b611221565b005b3480156102b057600080fd5b506102cb60048036038101906102c69190611da0565b611405565b005b3480156102d957600080fd5b506102e261162e565b6040516102ef919061230c565b60405180910390f35b34801561030457600080fd5b5061031f600480360381019061031a9190611da0565b611707565b60405161032c919061239d565b60405180910390f35b34801561034157600080fd5b5061035c600480360381019061035791906123bf565b611780565b005b34801561036a57600080fd5b5061038560048036038101906103809190611e74565b611846565b6040516103929190611eb0565b60405180910390f35b6103a489611867565b156103e4576040517f08c379a00000000000000000000000000000000000000000000000000000000081526004016103db90612467565b60405180910390fd5b60038490806001815401808255809150506001900390600052602060002001600090919091909150556040518061018001604052808a8152602001898152602001888152602001878152602001868152602001858152602001600380548060200260200160405190810160405280929190818152602001828054801561048957602002820191906000526020600020905b815481526020019060010190808311610475575b505050505081526020018460018111156104a6576104a5612008565b5b81526020018381526020018281526020013373ffffffffffffffffffffffffffffffffffffffff168152602001600073ffffffffffffffffffffffffffffffffffffffff1681525060008a6040516104fe91906124c3565b9081526020016040518091039020600082015181600001908161052191906126e6565b50602082015181600101908161053791906126e6565b50604082015181600201908161054d91906126e6565b50606082015181600301908161056391906126e6565b50608082015181600401908161057991906126e6565b5060a0820151816005015560c08201518160060190805190602001906105a0929190611914565b5060e08201518160070160006101000a81548160ff021916908360018111156105cc576105cb612008565b5b021790555061010082015181600801556101208201518160090190816105f291906126e6565b5061014082015181600a0160006101000a81548173ffffffffffffffffffffffffffffffffffffffff021916908373ffffffffffffffffffffffffffffffffffffffff16021790555061016082015181600b0160006101000a81548173ffffffffffffffffffffffffffffffffffffffff021916908373ffffffffffffffffffffffffffffffffffffffff1602179055509050506002899080600181540180825580915050600190039060005260206000200160009091909190915090816106ba91906126e6565b50505050505050505050565b3373ffffffffffffffffffffffffffffffffffffffff166000836040516106ed91906124c3565b9081526020016040518091039020600a0160009054906101000a900473ffffffffffffffffffffffffffffffffffffffff1673ffffffffffffffffffffffffffffffffffffffff161461073f57600080fd5b60008260405161074f91906124c3565b908152602001604051809103902060050154811161076c57600080fd5b8060008360405161077d91906124c3565b9081526020016040518091039020600501819055506000826040516107a291906124c3565b90815260200160405180910390206006018190806001815401808255809150506001900390600052602060002001600090919091909150555050565b3373ffffffffffffffffffffffffffffffffffffffff1660008360405161080591906124c3565b9081526020016040518091039020600a0160009054906101000a900473ffffffffffffffffffffffffffffffffffffffff1673ffffffffffffffffffffffffffffffffffffffff161461085757600080fd5b8060008360405161086891906124c3565b9081526020016040518091039020600801819055505050565b60008160405161089191906124c3565b908152602001604051809103902060080154600160003373ffffffffffffffffffffffffffffffffffffffff1673ffffffffffffffffffffffffffffffffffffffff168152602001908152602001600020541015610924576040517f08c379a000000000000000000000000000000000000000000000000000000000815260040161091b9061282a565b60405180910390fd5b60008160405161093491906124c3565b908152602001604051809103902060080154600160003373ffffffffffffffffffffffffffffffffffffffff1673ffffffffffffffffffffffffffffffffffffffff16815260200190815260200160002060008282546109949190612879565b92505081905550600060018111156109af576109ae612008565b5b6000826040516109bf91906124c3565b908152602001604051809103902060070160006101000a81548160ff021916908360018111156109f2576109f1612008565b5b021790555033600082604051610a0891906124c3565b9081526020016040518091039020600b0160006101000a81548173ffffffffffffffffffffffffffffffffffffffff021916908373ffffffffffffffffffffffffffffffffffffffff16021790555050565b80600160003373ffffffffffffffffffffffffffffffffffffffff1673ffffffffffffffffffffffffffffffffffffffff168152602001908152602001600020541015610adc576040517f08c379a0000000000000000000000000000000000000000000000000000000008152600401610ad39061282a565b60405180910390fd5b80600160003373ffffffffffffffffffffffffffffffffffffffff1673ffffffffffffffffffffffffffffffffffffffff1681526020019081526020016000206000828254610b2b9190612879565b925050819055503373ffffffffffffffffffffffffffffffffffffffff166108fc829081150290604051600060405180830381858888f19350505050158015610b78573d6000803e3d6000fd5b5050565b6000600160008373ffffffffffffffffffffffffffffffffffffffff1673ffffffffffffffffffffffffffffffffffffffff168152602001908152602001600020549050919050565b610bcd611961565b600082604051610bdd91906124c3565b908152602001604051809103902060405180610180016040529081600082018054610c0790612509565b80601f0160208091040260200160405190810160405280929190818152602001828054610c3390612509565b8015610c805780601f10610c5557610100808354040283529160200191610c80565b820191906000526020600020905b815481529060010190602001808311610c6357829003601f168201915b50505050508152602001600182018054610c9990612509565b80601f0160208091040260200160405190810160405280929190818152602001828054610cc590612509565b8015610d125780601f10610ce757610100808354040283529160200191610d12565b820191906000526020600020905b815481529060010190602001808311610cf557829003601f168201915b50505050508152602001600282018054610d2b90612509565b80601f0160208091040260200160405190810160405280929190818152602001828054610d5790612509565b8015610da45780601f10610d7957610100808354040283529160200191610da4565b820191906000526020600020905b815481529060010190602001808311610d8757829003601f168201915b50505050508152602001600382018054610dbd90612509565b80601f0160208091040260200160405190810160405280929190818152602001828054610de990612509565b8015610e365780601f10610e0b57610100808354040283529160200191610e36565b820191906000526020600020905b815481529060010190602001808311610e1957829003601f168201915b50505050508152602001600482018054610e4f90612509565b80601f0160208091040260200160405190810160405280929190818152602001828054610e7b90612509565b8015610ec85780601f10610e9d57610100808354040283529160200191610ec8565b820191906000526020600020905b815481529060010190602001808311610eab57829003601f168201915b505050505081526020016005820154815260200160068201805480602002602001604051908101604052809291908181526020018280548015610f2a57602002820191906000526020600020905b815481526020019060010190808311610f16575b505050505081526020016007820160009054906101000a900460ff166001811115610f5857610f57612008565b5b6001811115610f6a57610f69612008565b5b815260200160088201548152602001600982018054610f8890612509565b80601f0160208091040260200160405190810160405280929190818152602001828054610fb490612509565b80156110015780601f10610fd657610100808354040283529160200191611001565b820191906000526020600020905b815481529060010190602001808311610fe457829003601f168201915b50505050508152602001600a820160009054906101000a900473ffffffffffffffffffffffffffffffffffffffff1673ffffffffffffffffffffffffffffffffffffffff1673ffffffffffffffffffffffffffffffffffffffff168152602001600b820160009054906101000a900473ffffffffffffffffffffffffffffffffffffffff1673ffffffffffffffffffffffffffffffffffffffff1673ffffffffffffffffffffffffffffffffffffffff16815250509050919050565b343373ffffffffffffffffffffffffffffffffffffffff163111611116576040517f08c379a000000000000000000000000000000000000000000000000000000000815260040161110d9061291f565b60405180910390fd5b34600160003373ffffffffffffffffffffffffffffffffffffffff1673ffffffffffffffffffffffffffffffffffffffff1681526020019081526020016000206000828254611165919061293f565b92505081905550565b606060008260405161118091906124c3565b9081526020016040518091039020600901805461119c90612509565b80601f01602080910402602001604051908101604052809291908181526020018280546111c890612509565b80156112155780601f106111ea57610100808354040283529160200191611215565b820191906000526020600020905b8154815290600101906020018083116111f857829003601f168201915b50505050509050919050565b60008160405161123191906124c3565b9081526020016040518091039020600b0160009054906101000a900473ffffffffffffffffffffffffffffffffffffffff1673ffffffffffffffffffffffffffffffffffffffff163373ffffffffffffffffffffffffffffffffffffffff16146112d0576040517f08c379a00000000000000000000000000000000000000000000000000000000081526004016112c7906129e5565b60405180910390fd5b6000816040516112e091906124c3565b908152602001604051809103902060080154600160003373ffffffffffffffffffffffffffffffffffffffff1673ffffffffffffffffffffffffffffffffffffffff1681526020019081526020016000206000828254611340919061293f565b9250508190555060018081111561135a57611359612008565b5b60008260405161136a91906124c3565b908152602001604051809103902060070160006101000a81548160ff0219169083600181111561139d5761139c612008565b5b0217905550600080826040516113b391906124c3565b9081526020016040518091039020600b0160006101000a81548173ffffffffffffffffffffffffffffffffffffffff021916908373ffffffffffffffffffffffffffffffffffffffff16021790555050565b60008160405161141591906124c3565b9081526020016040518091039020600b0160009054906101000a900473ffffffffffffffffffffffffffffffffffffffff1673ffffffffffffffffffffffffffffffffffffffff163373ffffffffffffffffffffffffffffffffffffffff16146114b4576040517f08c379a00000000000000000000000000000000000000000000000000000000081526004016114ab906129e5565b60405180910390fd5b6000816040516114c491906124c3565b9081526020016040518091039020600801546001600080846040516114e991906124c3565b9081526020016040518091039020600a0160009054906101000a900473ffffffffffffffffffffffffffffffffffffffff1673ffffffffffffffffffffffffffffffffffffffff1673ffffffffffffffffffffffffffffffffffffffff1681526020019081526020016000206000828254611564919061293f565b925050819055503360008260405161157c91906124c3565b9081526020016040518091039020600a0160006101000a81548173ffffffffffffffffffffffffffffffffffffffff021916908373ffffffffffffffffffffffffffffffffffffffff160217905550600080826040516115dc91906124c3565b9081526020016040518091039020600b0160006101000a81548173ffffffffffffffffffffffffffffffffffffffff021916908373ffffffffffffffffffffffffffffffffffffffff16021790555050565b60606002805480602002602001604051908101604052809291908181526020016000905b828210156116fe57838290600052602060002001805461167190612509565b80601f016020809104026020016040519081016040528092919081815260200182805461169d90612509565b80156116ea5780601f106116bf576101008083540402835291602001916116ea565b820191906000526020600020905b8154815290600101906020018083116116cd57829003601f168201915b505050505081526020019060010190611652565b50505050905090565b606060008260405161171991906124c3565b908152602001604051809103902060060180548060200260200160405190810160405280929190818152602001828054801561177457602002820191906000526020600020905b815481526020019060010190808311611760575b50505050509050919050565b3373ffffffffffffffffffffffffffffffffffffffff166000836040516117a791906124c3565b9081526020016040518091039020600a0160009054906101000a900473ffffffffffffffffffffffffffffffffffffffff1673ffffffffffffffffffffffffffffffffffffffff16146117f957600080fd5b8060008360405161180a91906124c3565b908152602001604051809103902060070160006101000a81548160ff0219169083600181111561183d5761183c612008565b5b02179055505050565b60008173ffffffffffffffffffffffffffffffffffffffff16319050919050565b600080600090505b600280549050811015611909578260405160200161188d91906124c3565b60405160208183030381529060405280519060200120600282815481106118b7576118b6612a05565b5b906000526020600020016040516020016118d19190612ab7565b60405160208183030381529060405280519060200120036118f657600191505061190f565b808061190190612ace565b91505061186f565b50600090505b919050565b828054828255906000526020600020908101928215611950579160200282015b8281111561194f578251825591602001919060010190611934565b5b50905061195d9190611a00565b5090565b60405180610180016040528060608152602001606081526020016060815260200160608152602001606081526020016000815260200160608152602001600060018111156119b2576119b1612008565b5b81526020016000815260200160608152602001600073ffffffffffffffffffffffffffffffffffffffff168152602001600073ffffffffffffffffffffffffffffffffffffffff1681525090565b5b80821115611a19576000816000905550600101611a01565b5090565b6000604051905090565b600080fd5b600080fd5b600080fd5b600080fd5b6000601f19601f8301169050919050565b7f4e487b7100000000000000000000000000000000000000000000000000000000600052604160045260246000fd5b611a8482611a3b565b810181811067ffffffffffffffff82111715611aa357611aa2611a4c565b5b80604052505050565b6000611ab6611a1d565b9050611ac28282611a7b565b919050565b600067ffffffffffffffff821115611ae257611ae1611a4c565b5b611aeb82611a3b565b9050602081019050919050565b82818337600083830152505050565b6000611b1a611b1584611ac7565b611aac565b905082815260208101848484011115611b3657611b35611a36565b5b611b41848285611af8565b509392505050565b600082601f830112611b5e57611b5d611a31565b5b8135611b6e848260208601611b07565b91505092915050565b6000819050919050565b611b8a81611b77565b8114611b9557600080fd5b50565b600081359050611ba781611b81565b92915050565b60028110611bba57600080fd5b50565b600081359050611bcc81611bad565b92915050565b60008060008060008060008060006101208a8c031215611bf557611bf4611a27565b5b60008a013567ffffffffffffffff811115611c1357611c12611a2c565b5b611c1f8c828d01611b49565b99505060208a013567ffffffffffffffff811115611c4057611c3f611a2c565b5b611c4c8c828d01611b49565b98505060408a013567ffffffffffffffff811115611c6d57611c6c611a2c565b5b611c798c828d01611b49565b97505060608a013567ffffffffffffffff811115611c9a57611c99611a2c565b5b611ca68c828d01611b49565b96505060808a013567ffffffffffffffff811115611cc757611cc6611a2c565b5b611cd38c828d01611b49565b95505060a0611ce48c828d01611b98565b94505060c0611cf58c828d01611bbd565b93505060e0611d068c828d01611b98565b9250506101008a013567ffffffffffffffff811115611d2857611d27611a2c565b5b611d348c828d01611b49565b9150509295985092959850929598565b60008060408385031215611d5b57611d5a611a27565b5b600083013567ffffffffffffffff811115611d7957611d78611a2c565b5b611d8585828601611b49565b9250506020611d9685828601611b98565b9150509250929050565b600060208284031215611db657611db5611a27565b5b600082013567ffffffffffffffff811115611dd457611dd3611a2c565b5b611de084828501611b49565b91505092915050565b600060208284031215611dff57611dfe611a27565b5b6000611e0d84828501611b98565b91505092915050565b600073ffffffffffffffffffffffffffffffffffffffff82169050919050565b6000611e4182611e16565b9050919050565b611e5181611e36565b8114611e5c57600080fd5b50565b600081359050611e6e81611e48565b92915050565b600060208284031215611e8a57611e89611a27565b5b6000611e9884828501611e5f565b91505092915050565b611eaa81611b77565b82525050565b6000602082019050611ec56000830184611ea1565b92915050565b600081519050919050565b600082825260208201905092915050565b60005b83811015611f05578082015181840152602081019050611eea565b60008484015250505050565b6000611f1c82611ecb565b611f268185611ed6565b9350611f36818560208601611ee7565b611f3f81611a3b565b840191505092915050565b611f5381611b77565b82525050565b600081519050919050565b600082825260208201905092915050565b6000819050602082019050919050565b6000611f918383611f4a565b60208301905092915050565b6000602082019050919050565b6000611fb582611f59565b611fbf8185611f64565b9350611fca83611f75565b8060005b83811015611ffb578151611fe28882611f85565b9750611fed83611f9d565b925050600181019050611fce565b5085935050505092915050565b7f4e487b7100000000000000000000000000000000000000000000000000000000600052602160045260246000fd5b6002811061204857612047612008565b5b50565b600081905061205982612037565b919050565b60006120698261204b565b9050919050565b6120798161205e565b82525050565b61208881611e36565b82525050565b60006101808301600083015184820360008601526120ac8282611f11565b915050602083015184820360208601526120c68282611f11565b915050604083015184820360408601526120e08282611f11565b915050606083015184820360608601526120fa8282611f11565b915050608083015184820360808601526121148282611f11565b91505060a083015161212960a0860182611f4a565b5060c083015184820360c08601526121418282611faa565b91505060e083015161215660e0860182612070565b5061010083015161216b610100860182611f4a565b506101208301518482036101208601526121858282611f11565b91505061014083015161219c61014086018261207f565b506101608301516121b161016086018261207f565b508091505092915050565b600060208201905081810360008301526121d6818461208e565b905092915050565b600082825260208201905092915050565b60006121fa82611ecb565b61220481856121de565b9350612214818560208601611ee7565b61221d81611a3b565b840191505092915050565b6000602082019050818103600083015261224281846121ef565b905092915050565b600081519050919050565b600082825260208201905092915050565b6000819050602082019050919050565b60006122828383611f11565b905092915050565b6000602082019050919050565b60006122a28261224a565b6122ac8185612255565b9350836020820285016122be85612266565b8060005b858110156122fa57848403895281516122db8582612276565b94506122e68361228a565b925060208a019950506001810190506122c2565b50829750879550505050505092915050565b600060208201905081810360008301526123268184612297565b905092915050565b600082825260208201905092915050565b600061234a82611f59565b612354818561232e565b935061235f83611f75565b8060005b838110156123905781516123778882611f85565b975061238283611f9d565b925050600181019050612363565b5085935050505092915050565b600060208201905081810360008301526123b7818461233f565b905092915050565b600080604083850312156123d6576123d5611a27565b5b600083013567ffffffffffffffff8111156123f4576123f3611a2c565b5b61240085828601611b49565b925050602061241185828601611bbd565b9150509250929050565b7f43617220616c7265616479206578697374730000000000000000000000000000600082015250565b60006124516012836121de565b915061245c8261241b565b602082019050919050565b6000602082019050818103600083015261248081612444565b9050919050565b600081905092915050565b600061249d82611ecb565b6124a78185612487565b93506124b7818560208601611ee7565b80840191505092915050565b60006124cf8284612492565b915081905092915050565b7f4e487b7100000000000000000000000000000000000000000000000000000000600052602260045260246000fd5b6000600282049050600182168061252157607f821691505b602082108103612534576125336124da565b5b50919050565b60008190508160005260206000209050919050565b60006020601f8301049050919050565b600082821b905092915050565b60006008830261259c7fffffffffffffffffffffffffffffffffffffffffffffffffffffffffffffffff8261255f565b6125a6868361255f565b95508019841693508086168417925050509392505050565b6000819050919050565b60006125e36125de6125d984611b77565b6125be565b611b77565b9050919050565b6000819050919050565b6125fd836125c8565b612611612609826125ea565b84845461256c565b825550505050565b600090565b612626612619565b6126318184846125f4565b505050565b5b818110156126555761264a60008261261e565b600181019050612637565b5050565b601f82111561269a5761266b8161253a565b6126748461254f565b81016020851015612683578190505b61269761268f8561254f565b830182612636565b50505b505050565b600082821c905092915050565b60006126bd6000198460080261269f565b1980831691505092915050565b60006126d683836126ac565b9150826002028217905092915050565b6126ef82611ecb565b67ffffffffffffffff81111561270857612707611a4c565b5b6127128254612509565b61271d828285612659565b600060209050601f831160018114612750576000841561273e578287015190505b61274885826126ca565b8655506127b0565b601f19841661275e8661253a565b60005b8281101561278657848901518255600182019150602085019450602081019050612761565b868310156127a3578489015161279f601f8916826126ac565b8355505b6001600288020188555050505b505050505050565b7f5468657265206973206e6f7420656e6f756768206574686572206f6e20796f7560008201527f72206163636f756e740000000000000000000000000000000000000000000000602082015250565b60006128146029836121de565b915061281f826127b8565b604082019050919050565b6000602082019050818103600083015261284381612807565b9050919050565b7f4e487b7100000000000000000000000000000000000000000000000000000000600052601160045260246000fd5b600061288482611b77565b915061288f83611b77565b92508282039050818111156128a7576128a661284a565b5b92915050565b7f5468657265206973206e6f7420656e6f756768206574686572206f6e20796f7560008201527f722077616c6c6574000000000000000000000000000000000000000000000000602082015250565b60006129096028836121de565b9150612914826128ad565b604082019050919050565b60006020820190508181036000830152612938816128fc565b9050919050565b600061294a82611b77565b915061295583611b77565b925082820190508082111561296d5761296c61284a565b5b92915050565b7f43757272656e74207573657220616e64206275796572206f662074686520636160008201527f7220617265206e6f74207468652073616d650000000000000000000000000000602082015250565b60006129cf6032836121de565b91506129da82612973565b604082019050919050565b600060208201905081810360008301526129fe816129c2565b9050919050565b7f4e487b7100000000000000000000000000000000000000000000000000000000600052603260045260246000fd5b60008154612a4181612509565b612a4b8186612487565b94506001821660008114612a665760018114612a7b57612aae565b60ff1983168652811515820286019350612aae565b612a848561253a565b60005b83811015612aa657815481890152600182019150602081019050612a87565b838801955050505b50505092915050565b6000612ac38284612a34565b915081905092915050565b6000612ad982611b77565b91507fffffffffffffffffffffffffffffffffffffffffffffffffffffffffffffffff8203612b0b57612b0a61284a565b5b60018201905091905056fea264697066735822122086e4f0a085652679701fa7aa6e0245f7ec64a14abc96709ffed30c1db8c26aa964736f6c63430008110033",
  "immutableReferences": {},
  "source": "//SPDX-License-Identifier: UNLICENSED\r\npragma solidity ^ 0.8.0;\r\n\r\ncontract carsSale{\r\n\r\n    mapping(string => Car) cars;\r\n    mapping(address => uint) balances;\r\n    string[] allCars;\r\n    uint[] mileageHistory;\r\n    enum carStatus {\r\n        NO_SALE,\r\n        SALE\r\n    }\r\n\r\n    struct Car {\r\n        string licensePlate;\r\n        string chassisNumber;\r\n        string brand;\r\n        string typeCar;\r\n        string colour;\r\n        uint mileage;\r\n        uint[] mileageHistory;\r\n        carStatus status;\r\n        uint256 price;\r\n        string image;\r\n        address payable owner;\r\n        address payable buyer;\r\n\r\n    }\r\n\r\n    function addMoneyToAccount() external payable {\r\n        require(msg.sender.balance > msg.value, \"There is not enough ether on your wallet\");\r\n        balances[msg.sender] += msg.value;\r\n    }\r\n\r\n    function withdraw(uint _amount) public {\r\n        require(balances[msg.sender] >= _amount, \"There is not enough ether on your account\");\r\n        balances[msg.sender] -= _amount;\r\n        payable(msg.sender).transfer(_amount);\r\n    }\r\n    function buyCar(string memory _licensePlate) public {\r\n        require(balances[msg.sender] >= cars[_licensePlate].price, \"There is not enough ether on your account\");\r\n        balances[msg.sender] -= cars[_licensePlate].price;\r\n        cars[_licensePlate].status = carStatus(0);\r\n        cars[_licensePlate].buyer = payable(msg.sender);\r\n    }\r\n\r\n    function confirmPayment(string memory _licensePlate) public {\r\n        require(msg.sender == cars[_licensePlate].buyer, \"Current user and buyer of the car are not the same\");\r\n        balances[cars[_licensePlate].owner] += cars[_licensePlate].price;\r\n        cars[_licensePlate].owner = payable(msg.sender);\r\n        cars[_licensePlate].buyer = payable(address(0));\r\n    }\r\n\r\n    function cancelPayment(string memory _licensePlate) public {\r\n        require(msg.sender == cars[_licensePlate].buyer, \"Current user and buyer of the car are not the same\");\r\n        balances[msg.sender] += cars[_licensePlate].price;\r\n        cars[_licensePlate].status = carStatus(1);\r\n        cars[_licensePlate].buyer = payable(address(0));\r\n    }\r\n\r\n    function getUserBalance(address payable user) public view returns(uint){\r\n        return balances[user];\r\n    }\r\n\r\n    function getWalletBalance(address payable user) public view returns(uint){\r\n        return user.balance;\r\n    }\r\n\r\n    function getAllCars() public view returns(string[] memory ) {\r\n        return allCars;\r\n    }\r\n\r\n    function getImageHash(string memory _licensePlate) public view returns (string memory) {\r\n        return cars[_licensePlate].image;\r\n    }\r\n\r\n    function getMileageHistory(string memory _licensePlate) public view returns (uint[] memory) {\r\n        return cars[_licensePlate].mileageHistory;\r\n    }\r\n\r\n    function getCar(string memory _licensePlate) public view returns (Car memory) {\r\n        return cars[_licensePlate];\r\n    }\r\n\r\n    function carExists(string memory _licensePlate) internal view returns(bool) {\r\n        for (uint i = 0; i < allCars.length; i++) {\r\n            if (keccak256(abi.encodePacked(allCars[i])) == keccak256(abi.encodePacked(_licensePlate))) {\r\n                return true;\r\n            }\r\n        }\r\n        return false;\r\n    }\r\n\r\n    function setCar(string memory _licensePlate, string memory _chassis_number, string memory _brand,\r\n        string memory _type_car, string memory _colour, uint _mileage, carStatus _status, uint _price, string memory hash) public {\r\n        require(!carExists(_licensePlate), \"Car already exists\");\r\n        mileageHistory.push(_mileage);\r\n        cars[_licensePlate] = Car(_licensePlate, _chassis_number, _brand, _type_car, _colour, _mileage, mileageHistory, _status, _price, hash, payable(msg.sender), payable(address(0)));\r\n        allCars.push(_licensePlate);\r\n    }\r\n\r\n    function setStatus(string memory _licensePlate, carStatus _status) public {\r\n        require(cars[_licensePlate].owner == msg.sender);\r\n        cars[_licensePlate].status = _status;\r\n    }\r\n\r\n    function setPrice(string memory _licensePlate, uint _newPrice) public {\r\n        require(cars[_licensePlate].owner == msg.sender);\r\n        cars[_licensePlate].price = _newPrice;\r\n    }\r\n\r\n    function setMileage(string memory _licensePlate, uint _mileage) public {\r\n        require(cars[_licensePlate].owner == msg.sender);\r\n        require(_mileage > cars[_licensePlate].mileage);\r\n        cars[_licensePlate].mileage = _mileage;\r\n        cars[_licensePlate].mileageHistory.push(_mileage);\r\n    }\r\n}\r\n",
  "sourcePath": "C:\\Users\\joliw\\OneDrive\\Bureaublad\\Blockchain_Development\\smart_contracts\\contracts\\carsSale.sol",
  "compiler": {
    "name": "solc",
    "version": "0.8.17+commit.8df45f5f.Emscripten.clang"
  },
  "schemaVersion": "3.4.11",
  "updatedAt": "2023-04-05T07:38:41.976Z",
  "networkType": "ethereum",
  "devdoc": {
    "kind": "dev",
    "methods": {},
    "version": 1
  },
  "userdoc": {
    "kind": "user",
    "methods": {},
    "version": 1
  }
}